{
  "contractName": "SubdomainRegistrar",
  "abi": [
    {
      "constant": true,
      "inputs": [],
      "name": "rns",
      "outputs": [
        {
          "name": "",
          "type": "address"
        }
      ],
      "payable": false,
      "stateMutability": "view",
      "type": "function"
    },
    {
      "constant": true,
      "inputs": [],
      "name": "owner",
      "outputs": [
        {
          "name": "",
          "type": "address"
        }
      ],
      "payable": false,
      "stateMutability": "view",
      "type": "function"
    },
    {
      "constant": true,
      "inputs": [],
      "name": "rootNode",
      "outputs": [
        {
          "name": "",
          "type": "bytes32"
        }
      ],
      "payable": false,
      "stateMutability": "view",
      "type": "function"
    },
    {
      "inputs": [
        {
          "name": "_rns",
          "type": "address"
        },
        {
          "name": "_rootNode",
          "type": "bytes32"
        }
      ],
      "payable": false,
      "stateMutability": "nonpayable",
      "type": "constructor"
    },
    {
      "constant": false,
      "inputs": [
        {
          "name": "_owner",
          "type": "address"
        }
      ],
      "name": "transferRegistrar",
      "outputs": [],
      "payable": false,
      "stateMutability": "nonpayable",
      "type": "function"
    }
  ],
  "bytecode": "0x608060405234801561001057600080fd5b5060405160408061051e8339810180604052810190808051906020019092919080519060200190929190505050336000806101000a81548173ffffffffffffffffffffffffffffffffffffffff021916908373ffffffffffffffffffffffffffffffffffffffff16021790555081600160006101000a81548173ffffffffffffffffffffffffffffffffffffffff021916908373ffffffffffffffffffffffffffffffffffffffff16021790555080600281600019169055505050610444806100da6000396000f300608060405260043610610062576000357c0100000000000000000000000000000000000000000000000000000000900463ffffffff168063663b44c5146100675780638da5cb5b146100be5780639be2baec14610115578063faff50a814610158575b600080fd5b34801561007357600080fd5b5061007c61018b565b604051808273ffffffffffffffffffffffffffffffffffffffff1673ffffffffffffffffffffffffffffffffffffffff16815260200191505060405180910390f35b3480156100ca57600080fd5b506100d36101b1565b604051808273ffffffffffffffffffffffffffffffffffffffff1673ffffffffffffffffffffffffffffffffffffffff16815260200191505060405180910390f35b34801561012157600080fd5b50610156600480360381019080803573ffffffffffffffffffffffffffffffffffffffff1690602001909291905050506101d6565b005b34801561016457600080fd5b5061016d610412565b60405180826000191660001916815260200191505060405180910390f35b600160009054906101000a900473ffffffffffffffffffffffffffffffffffffffff1681565b6000809054906101000a900473ffffffffffffffffffffffffffffffffffffffff1681565b6000809054906101000a900473ffffffffffffffffffffffffffffffffffffffff1673ffffffffffffffffffffffffffffffffffffffff163373ffffffffffffffffffffffffffffffffffffffff1614151561029a576040517f08c379a00000000000000000000000000000000000000000000000000000000081526004018080602001828103825260118152602001807f53656e646572206e6f74206f776e65722e00000000000000000000000000000081525060200191505060405180910390fd5b600160009054906101000a900473ffffffffffffffffffffffffffffffffffffffff1673ffffffffffffffffffffffffffffffffffffffff16600254826040516024018083600019166000191681526020018273ffffffffffffffffffffffffffffffffffffffff1673ffffffffffffffffffffffffffffffffffffffff168152602001925050506040516020818303038152906040527f5b0fc9c3000000000000000000000000000000000000000000000000000000007bffffffffffffffffffffffffffffffffffffffffffffffffffffffff19166020820180517bffffffffffffffffffffffffffffffffffffffffffffffffffffffff838183161783525050505060405180828051906020019080838360005b838110156103cc5780820151818401526020810190506103b1565b50505050905090810190601f1680156103f95780820380516001836020036101000a031916815260200191505b509150506000604051808303816000865af19150505050565b600254815600a165627a7a723058209b5274e1d7058ab3c02b3ce0d52983f39990f0e2e97baa99a95cbb70ac7f230e0029",
  "source": "pragma solidity >=0.4.21 <0.6.0;\n\n\ncontract SubdomainRegistrar {\n    address public owner;\n    address public rns;\n    bytes32 public rootNode;\n\n    /**\n     * @dev Constructs a new Subdomain Registrar, with the provided address as the owner of the\n     * Registrar and root node from which subnodes inherit.\n     *\n     * @param _rns The address of the RNS.\n     * @param _rootNode The hash of the root node.\n     */\n    constructor(address _rns, bytes32 _rootNode) public {\n        owner = msg.sender;\n        rns = _rns;\n        rootNode = _rootNode;\n    }\n\n    modifier onlyOwner() {\n        require(\n            msg.sender == owner,\n            \"Sender not owner.\"\n        );\n        _;\n    }\n\n    /**\n     * @dev Transfers the root node ownership in RNS Registry to a given account.\n     *\n     * @param _owner The new root node owner\n     */\n    function transferRegistrar (address _owner) public onlyOwner() {\n        rns.call(abi.encodeWithSignature(\n            \"setOwner(bytes32,address)\",\n            rootNode,\n            _owner\n        ));\n    }\n}",
  "sourcePath": "/Users/ilan/RSK/rnsdomains/SubdomainRegistrar/contracts/SubdomainRegistrar.sol",
  "compiler": {
    "name": "solc",
    "version": "0.4.25+commit.59dbf8f1.Emscripten.clang"
  },
  "schemaVersion": "2.0.2",
  "updatedAt": "2019-03-08T16:31:31.789Z"
}