{
  "contractName": "SubdomainRegistrar",
  "abi": [
    {
      "constant": true,
      "inputs": [],
      "name": "tokenContract",
      "outputs": [
        {
          "name": "",
          "type": "address"
        }
      ],
      "payable": false,
      "stateMutability": "view",
      "type": "function"
    },
    {
      "constant": true,
      "inputs": [],
      "name": "subdomainValue",
      "outputs": [
        {
          "name": "",
          "type": "uint256"
        }
      ],
      "payable": false,
      "stateMutability": "view",
      "type": "function"
    },
    {
      "constant": true,
      "inputs": [],
      "name": "rns",
      "outputs": [
        {
          "name": "",
          "type": "address"
        }
      ],
      "payable": false,
      "stateMutability": "view",
      "type": "function"
    },
    {
      "constant": true,
      "inputs": [],
      "name": "owner",
      "outputs": [
        {
          "name": "",
          "type": "address"
        }
      ],
      "payable": false,
      "stateMutability": "view",
      "type": "function"
    },
    {
      "constant": true,
      "inputs": [],
      "name": "rootNode",
      "outputs": [
        {
          "name": "",
          "type": "bytes32"
        }
      ],
      "payable": false,
      "stateMutability": "view",
      "type": "function"
    },
    {
      "inputs": [
        {
          "name": "_rns",
          "type": "address"
        },
        {
          "name": "_rootNode",
          "type": "bytes32"
        },
        {
          "name": "_tokenContract",
          "type": "address"
        },
        {
          "name": "_subdomainValue",
          "type": "uint256"
        }
      ],
      "payable": false,
      "stateMutability": "nonpayable",
      "type": "constructor"
    },
    {
      "constant": false,
      "inputs": [
        {
          "name": "_hash",
          "type": "bytes32"
        }
      ],
      "name": "registerSubdomain",
      "outputs": [],
      "payable": false,
      "stateMutability": "nonpayable",
      "type": "function"
    },
    {
      "constant": false,
      "inputs": [
        {
          "name": "_from",
          "type": "address"
        },
        {
          "name": "_tokenQuantity",
          "type": "uint256"
        },
        {
          "name": "_hash",
          "type": "bytes32"
        }
      ],
      "name": "registerSubdomainWithToken",
      "outputs": [],
      "payable": false,
      "stateMutability": "nonpayable",
      "type": "function"
    },
    {
      "constant": false,
      "inputs": [
        {
          "name": "_owner",
          "type": "address"
        }
      ],
      "name": "transferRegistrar",
      "outputs": [],
      "payable": false,
      "stateMutability": "nonpayable",
      "type": "function"
    },
    {
      "constant": false,
      "inputs": [
        {
          "name": "_from",
          "type": "address"
        },
        {
          "name": "_value",
          "type": "uint256"
        },
        {
          "name": "_data",
          "type": "bytes"
        }
      ],
      "name": "tokenFallback",
      "outputs": [
        {
          "name": "",
          "type": "bool"
        }
      ],
      "payable": false,
      "stateMutability": "nonpayable",
      "type": "function"
    }
  ],
  "bytecode": "0x608060405234801561001057600080fd5b5060405160808061110183398101806040528101908080519060200190929190805190602001909291908051906020019092919080519060200190929190505050336000806101000a81548173ffffffffffffffffffffffffffffffffffffffff021916908373ffffffffffffffffffffffffffffffffffffffff16021790555083600160006101000a81548173ffffffffffffffffffffffffffffffffffffffff021916908373ffffffffffffffffffffffffffffffffffffffff160217905550826002816000191690555081600360006101000a81548173ffffffffffffffffffffffffffffffffffffffff021916908373ffffffffffffffffffffffffffffffffffffffff1602179055508060048190555050505050610fc9806101386000396000f300608060405260043610610099576000357c0100000000000000000000000000000000000000000000000000000000900463ffffffff16806355a373d61461009e5780635fa0aca4146100f5578063608c3fdb14610150578063663b44c51461017b5780638da5cb5b146101d25780639be2baec14610229578063c0ee0b8a1461026c578063c9ea67fa14610317578063faff50a814610348575b600080fd5b3480156100aa57600080fd5b506100b361037b565b604051808273ffffffffffffffffffffffffffffffffffffffff1673ffffffffffffffffffffffffffffffffffffffff16815260200191505060405180910390f35b34801561010157600080fd5b5061014e600480360381019080803573ffffffffffffffffffffffffffffffffffffffff1690602001909291908035906020019092919080356000191690602001909291905050506103a1565b005b34801561015c57600080fd5b5061016561044f565b6040518082815260200191505060405180910390f35b34801561018757600080fd5b50610190610455565b604051808273ffffffffffffffffffffffffffffffffffffffff1673ffffffffffffffffffffffffffffffffffffffff16815260200191505060405180910390f35b3480156101de57600080fd5b506101e761047b565b604051808273ffffffffffffffffffffffffffffffffffffffff1673ffffffffffffffffffffffffffffffffffffffff16815260200191505060405180910390f35b34801561023557600080fd5b5061026a600480360381019080803573ffffffffffffffffffffffffffffffffffffffff1690602001909291905050506104a0565b005b34801561027857600080fd5b506102fd600480360381019080803573ffffffffffffffffffffffffffffffffffffffff16906020019092919080359060200190929190803590602001908201803590602001908080601f016020809104026020016040519081016040528093929190818152602001838380828437820191505050505050919291929050505061064e565b604051808215151515815260200191505060405180910390f35b34801561032357600080fd5b506103466004803603810190808035600019169060200190929190505050610a8a565b005b34801561035457600080fd5b5061035d610c41565b60405180826000191660001916815260200191505060405180910390f35b600360009054906101000a900473ffffffffffffffffffffffffffffffffffffffff1681565b60045482141515610440576040517f08c379a00000000000000000000000000000000000000000000000000000000081526004018080602001828103825260248152602001807f537562646f6d61696e2076616c7565206973206e6f742074686520737065636981526020017f666965640000000000000000000000000000000000000000000000000000000081525060400191505060405180910390fd5b61044a8184610c47565b505050565b60045481565b600160009054906101000a900473ffffffffffffffffffffffffffffffffffffffff1681565b6000809054906101000a900473ffffffffffffffffffffffffffffffffffffffff1681565b6000809054906101000a900473ffffffffffffffffffffffffffffffffffffffff1673ffffffffffffffffffffffffffffffffffffffff163373ffffffffffffffffffffffffffffffffffffffff16141515610564576040517f08c379a00000000000000000000000000000000000000000000000000000000081526004018080602001828103825260118152602001807f53656e646572206e6f74206f776e65722e00000000000000000000000000000081525060200191505060405180910390fd5b600160009054906101000a900473ffffffffffffffffffffffffffffffffffffffff1673ffffffffffffffffffffffffffffffffffffffff16635b0fc9c3600254836040518363ffffffff167c01000000000000000000000000000000000000000000000000000000000281526004018083600019166000191681526020018273ffffffffffffffffffffffffffffffffffffffff1673ffffffffffffffffffffffffffffffffffffffff16815260200192505050600060405180830381600087803b15801561063357600080fd5b505af1158015610647573d6000803e3d6000fd5b5050505050565b60008060006004845110156106665760019250610a81565b600360009054906101000a900473ffffffffffffffffffffffffffffffffffffffff1673ffffffffffffffffffffffffffffffffffffffff163373ffffffffffffffffffffffffffffffffffffffff16141515610751576040517f08c379a000000000000000000000000000000000000000000000000000000000815260040180806020018281038252602d8152602001807f546f6b656e2066616c6c6261636b2073656e646572206d75737420626520737081526020017f6563696669656420746f6b656e0000000000000000000000000000000000000081525060400191505060405180910390fd5b601884600081518110151561076257fe5b9060200101517f010000000000000000000000000000000000000000000000000000000000000090047f0100000000000000000000000000000000000000000000000000000000000000027f0100000000000000000000000000000000000000000000000000000000000000900463ffffffff169060020a0260108560018151811015156107ec57fe5b9060200101517f010000000000000000000000000000000000000000000000000000000000000090047f0100000000000000000000000000000000000000000000000000000000000000027f0100000000000000000000000000000000000000000000000000000000000000900463ffffffff169060020a02600886600281518110151561087657fe5b9060200101517f010000000000000000000000000000000000000000000000000000000000000090047f0100000000000000000000000000000000000000000000000000000000000000027f0100000000000000000000000000000000000000000000000000000000000000900463ffffffff169060020a028660038151811015156108fe57fe5b9060200101517f010000000000000000000000000000000000000000000000000000000000000090047f0100000000000000000000000000000000000000000000000000000000000000027f010000000000000000000000000000000000000000000000000000000000000090040101017c0100000000000000000000000000000000000000000000000000000000029150635fa0aca478010000000000000000000000000000000000000000000000000277ffffffffffffffffffffffffffffffffffffffffffffffff1916827bffffffffffffffffffffffffffffffffffffffffffffffffffffffff19161415610a0e576109fc846004610ebf565b9050610a098686836103a1565b610a7c565b6040517f08c379a000000000000000000000000000000000000000000000000000000000815260040180806020018281038252601e8152602001807f4e6f206d6574686f64207769746820676976656e207369676e6174757265000081525060200191505060405180910390fd5b600192505b50509392505050565b600360009054906101000a900473ffffffffffffffffffffffffffffffffffffffff1673ffffffffffffffffffffffffffffffffffffffff166323b872dd33306004546040518463ffffffff167c0100000000000000000000000000000000000000000000000000000000028152600401808473ffffffffffffffffffffffffffffffffffffffff1673ffffffffffffffffffffffffffffffffffffffff1681526020018373ffffffffffffffffffffffffffffffffffffffff1673ffffffffffffffffffffffffffffffffffffffff1681526020018281526020019350505050602060405180830381600087803b158015610b8557600080fd5b505af1158015610b99573d6000803e3d6000fd5b505050506040513d6020811015610baf57600080fd5b81019080805190602001909291905050501515610c34576040517f08c379a00000000000000000000000000000000000000000000000000000000081526004018080602001828103825260208152602001807f546f6b656e20636f6e747261637420617070726f76616c20726571756972656481525060200191505060405180910390fd5b610c3e8133610c47565b50565b60025481565b6000600160009054906101000a900473ffffffffffffffffffffffffffffffffffffffff1673ffffffffffffffffffffffffffffffffffffffff166302571be3846040518263ffffffff167c0100000000000000000000000000000000000000000000000000000000028152600401808260001916600019168152602001915050602060405180830381600087803b158015610ce257600080fd5b505af1158015610cf6573d6000803e3d6000fd5b505050506040513d6020811015610d0c57600080fd5b81019080805190602001909291905050509050600073ffffffffffffffffffffffffffffffffffffffff168173ffffffffffffffffffffffffffffffffffffffff16141515610dc3576040517f08c379a000000000000000000000000000000000000000000000000000000000815260040180806020018281038252601b8152602001807f537562646f6d61696e20616c726561647920686173206f776e6572000000000081525060200191505060405180910390fd5b600160009054906101000a900473ffffffffffffffffffffffffffffffffffffffff1673ffffffffffffffffffffffffffffffffffffffff166306ab592360025485856040518463ffffffff167c010000000000000000000000000000000000000000000000000000000002815260040180846000191660001916815260200183600019166000191681526020018273ffffffffffffffffffffffffffffffffffffffff1673ffffffffffffffffffffffffffffffffffffffff1681526020019350505050600060405180830381600087803b158015610ea257600080fd5b505af1158015610eb6573d6000803e3d6000fd5b50505050505050565b60008060008090505b6020811015610f92576008810260ff7f01000000000000000000000000000000000000000000000000000000000000000286838701815181101515610f0957fe5b9060200101517f010000000000000000000000000000000000000000000000000000000000000090047f010000000000000000000000000000000000000000000000000000000000000002167effffffffffffffffffffffffffffffffffffffffffffffffffffffffffffff1916600019169060020a9004821791508080600101915050610ec8565b8192505050929150505600a165627a7a723058204f56ab93903b662b95f94475f99a266a4f1a7f004cfae19943f46011638a6f3f0029",
  "source": "pragma solidity >=0.4.21 <0.6.0;\n\nimport \"./rns/RNS.sol\";\nimport \"./tokens/ERC677TokenContract.sol\";\n\ncontract SubdomainRegistrar {\n    address public owner;\n    RNS public rns;\n    bytes32 public rootNode;\n    ERC677TokenContract public tokenContract;\n    uint public subdomainValue;\n\n    bytes8 constant SIGN_REGISTER_SUBDOMAIN = 0x5fa0aca4; // sha3('registerSubdomainWithToken(address,uint256,bytes32)')\n\n    /**\n     * @dev Constructs a new Subdomain Registrar, with the provided address as the owner of the\n     * Registrar and root node from which subnodes inherit.\n     *\n     * @param _rns The address of the RNS.\n     * @param _rootNode The hash of the root node.\n     */\n    constructor(RNS _rns, bytes32 _rootNode, ERC677TokenContract _tokenContract, uint _subdomainValue) public {\n        owner = msg.sender;\n        rns = _rns;\n        rootNode = _rootNode;\n        tokenContract = _tokenContract;\n        subdomainValue = _subdomainValue;\n    }\n\n    modifier onlyOwner() {\n        require(\n            msg.sender == owner,\n            \"Sender not owner.\"\n        );\n        _;\n    }\n\n    /**\n     * @dev Buy a subdomain\n     *\n     * @param _hash The hash of the label specifying the subnode\n     */\n    function registerSubdomain(bytes32 _hash) public {\n        require(\n            tokenContract.transferFrom(msg.sender, address(this), subdomainValue),\n            \"Token contract approval required\"\n        );\n\n        registerSubdomainAfterTransfer(_hash, msg.sender);\n    }\n\n    /**\n     * @dev Method to be called through a dynamic invocation from an ERC677 token contract\n     *\n     * @param _from Address sending the tokens as well as the new subdomain owner\n     * @param _tokenQuantity Amount in tokens received throuh the transference\n     * @param _hash The hash of the label specifying the subnode\n    **/\n    function registerSubdomainWithToken(address _from, uint256 _tokenQuantity, bytes32 _hash) public {\n        require(\n            _tokenQuantity == subdomainValue,\n            \"Subdomain value is not the specified\"\n        );\n\n        registerSubdomainAfterTransfer(_hash, _from);\n    }\n\n    /**\n     * @dev Registers a subnode under root node in RNS Registry.\n     *\n     * @param _hash The hash of the label specifying the subnode\n     */\n    function registerSubdomainAfterTransfer(bytes32 _hash, address _owner) private {\n        address hashOwner = rns.owner(_hash);\n        if (hashOwner != address(0)) {\n            revert(\"Subdomain already has owner\");\n        }\n\n        rns.setSubnodeOwner(rootNode, _hash, _owner);\n    }\n\n    /**\n     * @dev Transfers the root node ownership in RNS Registry to a given account.\n     *\n     * @param _owner The new root node owner\n     */\n    function transferRegistrar(address _owner) public onlyOwner() {\n        rns.setOwner(rootNode, _owner);\n    }\n\n    /**\n     * @dev Fallback function to be called when the contract receives a transference through an ERC677 contract\n     *\n     * Functions supported:\n     * - registerSubdomainWithToken (signature 0x5fa0aca4) with a 32 byte parameter (hash to register)\n     *\n     * @param _from Address which sent the tokens\n     * @param _value Amount of tokens sent\n     * @param _data Byte array with information of which function to call and the parameters used for the invocation\n    **/\n    function tokenFallback(address _from, uint256 _value, bytes _data) public returns (bool) {\n        if (_data.length < 4) return true;\n\n        require(\n            msg.sender == address(tokenContract),\n            \"Token fallback sender must be specified token\"\n        );\n\n        bytes4 signature = bytes4(uint32(_data[3]) + (uint32(_data[2]) << 8) + (uint32(_data[1]) << 16) + (uint32(_data[0]) << 24));\n\n        if (signature == SIGN_REGISTER_SUBDOMAIN) {\n            bytes32 hash = bytesToBytes32(_data, 4);\n\n            registerSubdomainWithToken(_from, _value, hash);\n        } else {\n            revert(\"No method with given signature\");\n        }\n\n        return true;\n    }\n\n    /**\n     * @dev Given a byte array and a given offset, extract the following 32 bytes into an array\n     *\n     * from https://ethereum.stackexchange.com/questions/7702/how-to-convert-byte-array-to-bytes32-in-solidity\n    **/\n    function bytesToBytes32(bytes _b, uint _offset) private pure returns (bytes32) {\n        bytes32 out;\n\n        for (uint i = 0; i < 32; i++) {\n            out |= bytes32(_b[_offset + i] & 0xFF) >> (i * 8);\n        }\n\n        return out;\n    }\n}\n",
  "sourcePath": "/Users/ilan/RSK/rnsdomains/SubdomainRegistrar/contracts/SubdomainRegistrar.sol",
  "compiler": {
    "name": "solc",
    "version": "0.4.25+commit.59dbf8f1.Emscripten.clang"
  },
  "schemaVersion": "2.0.2",
  "updatedAt": "2019-03-11T18:35:26.740Z"
}